{
  "contractName": "EtherSplitter",
  "abi": [
    {
      "constant": false,
      "inputs": [
        {
          "name": "recipients",
          "type": "address[]"
        }
      ],
      "name": "splitEther",
      "outputs": [],
      "payable": true,
      "stateMutability": "payable",
      "type": "function"
    }
  ],
  "bytecode": "0x608060405234801561001057600080fd5b5061015b806100206000396000f300608060405260043610610041576000357c0100000000000000000000000000000000000000000000000000000000900463ffffffff16806325287cc614610046575b600080fd5b61009d6004803603810190808035906020019082018035906020019080806020026020016040519081016040528093929190818152602001838360200280828437820191505050505050919291929050505061009f565b005b6000808251348115156100ae57fe5b049150600090505b825181101561012a5782818151811015156100cd57fe5b9060200190602002015173ffffffffffffffffffffffffffffffffffffffff166108fc839081150290604051600060405180830381858888f1935050505015801561011c573d6000803e3d6000fd5b5080806001019150506100b6565b5050505600a165627a7a72305820a4bc727dad42cbac730e12d9801d65f0a4ed9a6d59868ab8a359d975493e1a380029",
  "source": "pragma solidity ^0.4.24;\n\ncontract EtherSplitter {\n    function splitEther(address[] recipients) public payable {\n        uint amountForEach = msg.value / recipients.length;\n        for(uint i = 0; i < recipients.length; i++) {\n            recipients[i].transfer(amountForEach);\n        }\n    }\n}\n",
  "sourcePath": "/home/uxio/gnosis/dev/ether-splitter/contracts/EtherSplitter.sol",
  "compiler": {
    "name": "solc",
    "version": "0.4.24+commit.e67f0147.Emscripten.clang"
  },
  "schemaVersion": "2.0.1",
  "updatedAt": "2018-07-11T16:38:14.121Z"
}