{
  "contractName": "TokenSplitter",
  "abi": [
    {
      "constant": false,
      "inputs": [
        {
          "name": "_recipients",
          "type": "address[]"
        },
        {
          "name": "_tokenAddress",
          "type": "address"
        },
        {
          "name": "_amountForEach",
          "type": "uint256"
        }
      ],
      "name": "splitTokens",
      "outputs": [],
      "payable": false,
      "stateMutability": "nonpayable",
      "type": "function"
    }
  ],
  "bytecode": "0x608060405234801561001057600080fd5b50610254806100206000396000f300608060405260043610610041576000357c0100000000000000000000000000000000000000000000000000000000900463ffffffff168063eaca35b014610046575b600080fd5b34801561005257600080fd5b506100d460048036038101908080359060200190820180359060200190808060200260200160405190810160405280939291908181526020018383602002808284378201915050505050509192919290803573ffffffffffffffffffffffffffffffffffffffff169060200190929190803590602001909291905050506100d6565b005b600080839150600090505b8451811015610221578173ffffffffffffffffffffffffffffffffffffffff166323b872dd33878481518110151561011557fe5b90602001906020020151866040518463ffffffff167c0100000000000000000000000000000000000000000000000000000000028152600401808473ffffffffffffffffffffffffffffffffffffffff1673ffffffffffffffffffffffffffffffffffffffff1681526020018373ffffffffffffffffffffffffffffffffffffffff1673ffffffffffffffffffffffffffffffffffffffff1681526020018281526020019350505050602060405180830381600087803b1580156101d857600080fd5b505af11580156101ec573d6000803e3d6000fd5b505050506040513d602081101561020257600080fd5b81019080805190602001909291905050505080806001019150506100e1565b50505050505600a165627a7a723058207f00ca470a0bb8caf67a3acb069467cfd92efb6c1bf26cc465c4d303d85e80d50029",
  "source": "pragma solidity 0.4.24;\n\nimport \"@gnosis.pm/util-contracts/contracts/Token.sol\";\n\n\ncontract TokenSplitter {\n    function splitTokens(address[] _recipients, address _tokenAddress, uint _amountForEach) public {\n        Token erc20Token = Token(_tokenAddress);\n        for (uint i = 0; i < _recipients.length; i++) {\n            erc20Token.transferFrom(msg.sender, _recipients[i], _amountForEach);\n        }\n    }\n}\n",
  "sourcePath": "/home/uxio/gnosis/dev/token-splitter/contracts/TokenSplitter.sol",
  "compiler": {
    "name": "solc",
    "version": "0.4.24+commit.e67f0147.Emscripten.clang"
  },
  "schemaVersion": "2.0.1",
  "updatedAt": "2018-07-11T15:55:16.958Z"
}